{
  "_format": "hh-sol-artifact-1",
  "contractName": "App",
  "sourceName": "contracts/app/App.sol",
  "abi": [
    {
      "inputs": [],
      "stateMutability": "nonpayable",
      "type": "constructor"
    },
    {
      "inputs": [
        {
          "internalType": "uint256",
          "name": "expected",
          "type": "uint256"
        },
        {
          "internalType": "uint256",
          "name": "actual",
          "type": "uint256"
        }
      ],
      "name": "AmountMismatch",
      "type": "error"
    },
    {
      "inputs": [],
      "name": "ECDSAInvalidSignature",
      "type": "error"
    },
    {
      "inputs": [
        {
          "internalType": "uint256",
          "name": "length",
          "type": "uint256"
        }
      ],
      "name": "ECDSAInvalidSignatureLength",
      "type": "error"
    },
    {
      "inputs": [
        {
          "internalType": "bytes32",
          "name": "s",
          "type": "bytes32"
        }
      ],
      "name": "ECDSAInvalidSignatureS",
      "type": "error"
    },
    {
      "inputs": [],
      "name": "EnforcedPause",
      "type": "error"
    },
    {
      "inputs": [],
      "name": "ExpectedPause",
      "type": "error"
    },
    {
      "inputs": [],
      "name": "FailedCall",
      "type": "error"
    },
    {
      "inputs": [
        {
          "internalType": "uint256",
          "name": "balance",
          "type": "uint256"
        },
        {
          "internalType": "uint256",
          "name": "needed",
          "type": "uint256"
        }
      ],
      "name": "InsufficientBalance",
      "type": "error"
    },
    {
      "inputs": [
        {
          "internalType": "bytes32",
          "name": "affiliateTermsMessageHash",
          "type": "bytes32"
        },
        {
          "internalType": "uint256",
          "name": "version",
          "type": "uint256"
        }
      ],
      "name": "InvalidAffiliateTermsVersion",
      "type": "error"
    },
    {
      "inputs": [
        {
          "internalType": "uint256",
          "name": "version",
          "type": "uint256"
        }
      ],
      "name": "InvalidConsumerTermsVersion",
      "type": "error"
    },
    {
      "inputs": [],
      "name": "InvalidInitialization",
      "type": "error"
    },
    {
      "inputs": [
        {
          "internalType": "uint256",
          "name": "value",
          "type": "uint256"
        }
      ],
      "name": "InvalidPaywallStatusBlockNumber",
      "type": "error"
    },
    {
      "inputs": [
        {
          "internalType": "bytes32",
          "name": "sellerTermsMessageHash",
          "type": "bytes32"
        },
        {
          "internalType": "uint256",
          "name": "version",
          "type": "uint256"
        }
      ],
      "name": "InvalidSellerTermsVersion",
      "type": "error"
    },
    {
      "inputs": [
        {
          "internalType": "uint128",
          "name": "invoiceID",
          "type": "uint128"
        },
        {
          "internalType": "uint256",
          "name": "expiration",
          "type": "uint256"
        },
        {
          "internalType": "uint256",
          "name": "blockTimestamp",
          "type": "uint256"
        }
      ],
      "name": "InvoiceExpired",
      "type": "error"
    },
    {
      "inputs": [],
      "name": "NotInitializing",
      "type": "error"
    },
    {
      "inputs": [
        {
          "internalType": "address",
          "name": "account",
          "type": "address"
        }
      ],
      "name": "OwnableUnauthorizedAccount",
      "type": "error"
    },
    {
      "inputs": [
        {
          "internalType": "address",
          "name": "signer",
          "type": "address"
        },
        {
          "internalType": "uint64",
          "name": "postID",
          "type": "uint64"
        },
        {
          "internalType": "address",
          "name": "consumer",
          "type": "address"
        }
      ],
      "name": "PaywallAlreadyUnlocked",
      "type": "error"
    },
    {
      "inputs": [],
      "name": "ReentrancyGuardReentrantCall",
      "type": "error"
    },
    {
      "inputs": [
        {
          "internalType": "address",
          "name": "token",
          "type": "address"
        }
      ],
      "name": "SafeERC20FailedOperation",
      "type": "error"
    },
    {
      "inputs": [
        {
          "internalType": "uint256",
          "name": "value",
          "type": "uint256"
        },
        {
          "internalType": "uint256",
          "name": "length",
          "type": "uint256"
        }
      ],
      "name": "StringsInsufficientHexLength",
      "type": "error"
    },
    {
      "anonymous": false,
      "inputs": [
        {
          "indexed": false,
          "internalType": "uint64",
          "name": "version",
          "type": "uint64"
        }
      ],
      "name": "Initialized",
      "type": "event"
    },
    {
      "anonymous": false,
      "inputs": [
        {
          "indexed": false,
          "internalType": "address",
          "name": "account",
          "type": "address"
        }
      ],
      "name": "Paused",
      "type": "event"
    },
    {
      "anonymous": false,
      "inputs": [
        {
          "indexed": true,
          "internalType": "address",
          "name": "signer",
          "type": "address"
        },
        {
          "indexed": true,
          "internalType": "address",
          "name": "consumer",
          "type": "address"
        },
        {
          "indexed": false,
          "internalType": "uint128",
          "name": "invoiceID",
          "type": "uint128"
        }
      ],
      "name": "UnlockPaywall",
      "type": "event"
    },
    {
      "anonymous": false,
      "inputs": [
        {
          "indexed": true,
          "internalType": "address",
          "name": "signer",
          "type": "address"
        },
        {
          "indexed": true,
          "internalType": "address",
          "name": "from",
          "type": "address"
        },
        {
          "indexed": true,
          "internalType": "address",
          "name": "to",
          "type": "address"
        },
        {
          "indexed": false,
          "internalType": "address",
          "name": "token",
          "type": "address"
        },
        {
          "indexed": false,
          "internalType": "uint256",
          "name": "amount",
          "type": "uint256"
        },
        {
          "indexed": false,
          "internalType": "uint128",
          "name": "invoiceID",
          "type": "uint128"
        },
        {
          "indexed": false,
          "internalType": "uint32",
          "name": "transferType",
          "type": "uint32"
        }
      ],
      "name": "UnlockPaywallTransfer",
      "type": "event"
    },
    {
      "anonymous": false,
      "inputs": [
        {
          "indexed": false,
          "internalType": "address",
          "name": "account",
          "type": "address"
        }
      ],
      "name": "Unpaused",
      "type": "event"
    },
    {
      "inputs": [
        {
          "internalType": "address",
          "name": "signer",
          "type": "address"
        },
        {
          "internalType": "uint64",
          "name": "postID",
          "type": "uint64"
        },
        {
          "internalType": "address",
          "name": "consumer",
          "type": "address"
        }
      ],
      "name": "getPaywallStatus",
      "outputs": [
        {
          "internalType": "bool",
          "name": "isUnlocked",
          "type": "bool"
        },
        {
          "internalType": "uint128",
          "name": "invoiceID",
          "type": "uint128"
        },
        {
          "internalType": "uint256",
          "name": "unlockedBlockNumber",
          "type": "uint256"
        }
      ],
      "stateMutability": "view",
      "type": "function"
    },
    {
      "inputs": [],
      "name": "initialize",
      "outputs": [],
      "stateMutability": "nonpayable",
      "type": "function"
    },
    {
      "inputs": [],
      "name": "paused",
      "outputs": [
        {
          "internalType": "bool",
          "name": "",
          "type": "bool"
        }
      ],
      "stateMutability": "view",
      "type": "function"
    },
    {
      "inputs": [
        {
          "internalType": "bool",
          "name": "paused",
          "type": "bool"
        }
      ],
      "name": "setPaused",
      "outputs": [],
      "stateMutability": "nonpayable",
      "type": "function"
    },
    {
      "inputs": [
        {
          "internalType": "bytes",
          "name": "serverSignature",
          "type": "bytes"
        },
        {
          "internalType": "bytes32",
          "name": "sellerTermsMessageHash",
          "type": "bytes32"
        },
        {
          "internalType": "bytes",
          "name": "sellerTermsSignature",
          "type": "bytes"
        },
        {
          "internalType": "uint256",
          "name": "consumerTermsVersion",
          "type": "uint256"
        },
        {
          "internalType": "bytes32",
          "name": "affiliateTermsMessageHash",
          "type": "bytes32"
        },
        {
          "internalType": "bytes",
          "name": "affiliateTermsSignature",
          "type": "bytes"
        },
        {
          "internalType": "uint128",
          "name": "invoiceID",
          "type": "uint128"
        },
        {
          "internalType": "uint64",
          "name": "postID",
          "type": "uint64"
        },
        {
          "internalType": "address",
          "name": "paymentToken",
          "type": "address"
        },
        {
          "internalType": "uint256",
          "name": "paymentAmount",
          "type": "uint256"
        },
        {
          "internalType": "uint256",
          "name": "affiliateRatio",
          "type": "uint256"
        }
      ],
      "name": "unlockPaywall",
      "outputs": [],
      "stateMutability": "payable",
      "type": "function"
    },
    {
      "inputs": [
        {
          "internalType": "address payable",
          "name": "to",
          "type": "address"
        },
        {
          "internalType": "address",
          "name": "contractAddress",
          "type": "address"
        },
        {
          "internalType": "uint256",
          "name": "amount",
          "type": "uint256"
        }
      ],
      "name": "withdraw",
      "outputs": [],
      "stateMutability": "nonpayable",
      "type": "function"
    }
  ],
  "bytecode": "0x60a080604052346078576040816762603a3cd1bab7466020602494015260208152607c565b604060408051673d18fd0e37d057fe602082015260208152607c565b336080526060604080516767e87d7c7093ae75602082015260208152607c565b604051612d4090816100b38239608051816122220152f35b5f80fd5b601f909101601f19168101906001600160401b03821190821017609e57604052565b634e487b7160e01b5f52604160045260245ffdfe6080806040526004361015610012575f80fd5b5f3560e01c90816316c38b3c14611e45575080631aa5c54e146107495780635c975abb1461071b5780637586b665146105e15780638129fc1c146102f25763d9caed121461005e575f80fd5b346102ee5760603660031901126102ee576004356001600160a01b0381168082036102ee57602435906001600160a01b0382168092036102ee57604435916100ba6040805167c17a119e470467b56020820152602081526120f0565b6100c26122bf565b6100e06040805167245c50fe9f7371896020820152602081526120f0565b6100fe6040805167efeb2e0fdf7bf43b6020820152602081526120f0565b61011c60408051678c6f9cf713fe4aa86020820152602081526120f0565b61013a60408051672db370db2e16307b6020820152602081526120f0565b61015860408051677057f74dee7234586020820152602081526120f0565b6101606121c6565b61017e6040805167246b85136b07629a6020820152602081526120f0565b61019c604080516761ac0b198a4fadeb6020820152602081526120f0565b6101ba604080516750944c4ef5b908b36020820152602081526120f0565b6101d8604080516727ea64657c063c7a6020820152602081526120f0565b6101f66040805167b7a65124c44689176020820152602081526120f0565b806102855750506102609161021f6040805167a666823da3ca4cb16020820152602081526120f0565b61023d6040805167b3bcae9de2572e8d6020820152602081526120f0565b61025b60408051671fea242a0f913f3b6020820152602081526120f0565b612643565b5f7f9b779b17422d0df92223018b32b4d1fa46e071723d6817e2486d003becc55f005d005b6102e993506102a86040805167fb9b4720b4395a976020820152602081526120f0565b6102c660408051675472ae3ba156862a6020820152602081526120f0565b6102e46040805167cf33578effee3ead6020820152602081526120f0565b612607565b610260565b5f80fd5b346102ee575f3660031901126102ee576103206040805167c253f436dc7bd24f6020820152602081526120f0565b5f516020612ceb5f395f51905f525460ff8160401c16159067ffffffffffffffff8116801590816105d9575b60011490816105cf575b1590816105c6575b506105b75767ffffffffffffffff1981166001175f516020612ceb5f395f51905f52558161058b575b506103a66040805167899365cb5635ddec6020820152602081526120f0565b6103c46040805167d89dd6fd49f739eb6020820152602081526120f0565b6103e2604080516751b1e5ae7343e26d6020820152602081526120f0565b61040060408051671d38748c7c1b4b786020820152602081526120f0565b610408612aff565b610426604080516757a59521a1f5b9396020820152602081526120f0565b6104446040805167a76c066abba62f486020820152602081526120f0565b61044c612aff565b61046a60408051673d6be1715694dd826020820152602081526120f0565b61048860408051672d7260b0090d08036020820152602081526120f0565b610490612aff565b6104ae60408051678e658cc551956ea66020820152602081526120f0565b6104cc6040805167debd0a472d801bfb6020820152602081526120f0565b6104ea604080516792afd1f5baff459f6020820152602081526120f0565b6104f2612aff565b6105106040805167791d328070f0f6aa6020820152602081526120f0565b61052e6040805167dcf2be597a615abc6020820152602081526120f0565b61053457005b68ff0000000000000000195f516020612ceb5f395f51905f5254165f516020612ceb5f395f51905f52557fc7f505b2f371ae2175ee4913f4499e1f2633a7b5936321eed1cdaeb6115181d2602060405160018152a1005b68ffffffffffffffffff191668010000000000000001175f516020612ceb5f395f51905f525581610387565b63f92ee8a960e01b5f5260045ffd5b9050158361035e565b303b159150610356565b83915061034c565b346102ee5760603660031901126102ee576004356001600160a01b03811681036102ee576024359067ffffffffffffffff821682036102ee57604435916001600160a01b03831683036102ee576060926106a0916106536040805167c2e650120d5b1b026020820152602081526120f0565b6106716040805167bac5886b896c0e826020820152602081526120f0565b61067c8282866124ec565b9361069b6040805167ac51c2f8e474cdb96020820152602081526120f0565b612551565b6106be6040805167142ba3187091c0836020820152602081526120f0565b6106dc604080516723f926ce25ecffe06020820152602081526120f0565b6106fa60408051679b44ea860f4737836020820152602081526120f0565b60405191151582526001600160801b038116602083015260801c6040820152f35b346102ee575f3660031901126102ee57602060ff5f516020612ccb5f395f51905f5254166040519015158152f35b6101603660031901126102ee5760043567ffffffffffffffff81116102ee57610776903690600401612142565b60443567ffffffffffffffff81116102ee57610796903690600401612142565b9060a43567ffffffffffffffff81116102ee576107b7903690600401612142565b6001600160801b0360c4351660c435036102ee5760e4359067ffffffffffffffff821682036102ee57610104356001600160a01b03811681036102ee576108126040805167ce774475d62cffb86020820152602081526120f0565b61081a6122bf565b610838604080516796f3f87009dfa40b6020820152602081526120f0565b610856604080516729f9fd40119e35026020820152602081526120f0565b61087460408051676f263177134812a16020820152602081526120f0565b61089260408051675e1123770ab489326020820152602081526120f0565b6108b060408051678025c7ea80c1a8306020820152602081526120f0565b6108ce604080516776e7332ccefa01136020820152602081526120f0565b6108ec6040805167e609e53c05e789ea6020820152602081526120f0565b6127106101243502906101243582046127101461012435151715611c5b576109196006600a0a809361219b565b956109386040805167a798f5ee7417166f6020820152602081526120f0565b61095660408051676e2568d4776c59566020820152602081526120f0565b5f936109766040805167b18ea608a2d0ea356020820152602081526120f0565b6109946040805167c4eec784f3fa2c9c6020820152602081526120f0565b5f946109b46040805167c5f90f44069491406020820152602081526120f0565b6109d26040805167613717cbee5d6c6a6020820152602081526120f0565b6084351515958680611e3b575b15611e13575050610a2e90610a0860408051673946609f063e904b6020820152602081526120f0565b610a26604080516703d1d8709dbb195d6020820152602081526120f0565b60843561231a565b92610a4d6040805167aa637b972d0567e66020820152602081526120f0565b610a6b60408051678025c7ea80c1a8306020820152602081526120f0565b610a89604080516776e7332ccefa01136020820152602081526120f0565b610aa76040805167e609e53c05e789ea6020820152602081526120f0565b610ab76101443561012435612188565b90610ac19161219b565b905b6040516020810167266dc877a4c52b9e9052602081526040610ae4916120f0565b6040516020810167edd9f07cd5f31e109052602081526040610b05916120f0565b81610b1389610124356121b9565b90610b1d916121b9565b9060405160208101670560d6670a5c995c9052602081526040610b3f916120f0565b6040516020810167817c1742731cc31c9052602081526040610b60916120f0565b610b6c9060243561231a565b60405160208101676187d5ea915e3d199052602081526040610b8d916120f0565b60405160208101678372bce4865a57699052602081526040610bae916120f0565b60405160208101675f5c5088ee4f15409052602081526040610bcf916120f0565b60405160208101677946f2981e8f6f489052602081526040610bf0916120f0565b604051602081016716351f41c58ee6289052602081526040610c11916120f0565b610c1a466126c9565b610c238261281a565b90610c2d3361281a565b610c416001600160801b0360c435166126c9565b610c5467ffffffffffffffff8c166126c9565b610c5d8961281a565b610c69610124356126c9565b90610c756064356126c9565b92610c7f8d61281a565b94610c8c610144356126c9565b9660405199898b9a51602081920160208d015e8a0160208101915f83528051926020849201905e016020015f815281516020819301825e015f815281516020819301825e015f815281516020819301825e015f815281516020819301825e015f815281516020819301825e015f815281516020819301825e015f815281516020819301825e015f815281516020819301825e015f815203601f1981018252610d3490826120f0565b604051602081016786e4945f5dd667eb9052602081526040610d55916120f0565b60405160208101679a231001b938c4699052602081526040610d76916120f0565b6040516020810167c99f916edbab9c749052602081526040610d97916120f0565b805198895f9a7a184f03e93ff9f4daa797ed6e38ed64bf6a1f010000000000000000821015611deb575b806d04ee2d6d415b85acef8100000000600a921015611dd0575b662386f26fc10000811015611dbc575b6305f5e100811015611dab575b612710811015611d9c575b6064811015611d8e575b1015611d84575b60018b019a610e228c612126565b9b6040519c610e31908e6120f0565b808d52610e3d90612126565b601f19013660208e01378b01602101600a905b5f1901916f181899199a1a9b1b9c1cb0b131b232b360811b8282061a835304908115610e7e57600a90610e50565b5050610efc996020610eeb610ef394603a60405193849281808501977f19457468657265756d205369676e6564204d6573736167653a0a00000000000089528051918291018587015e8401908382015f8152815193849201905e01015f815203601f1981018352826120f0565b519020612b89565b90999199612bc3565b610f1a6040805167cc50d5c627bb79e66020820152602081526120f0565b610f386040805167e584b26a93ec99046020820152602081526120f0565b610f56604080516757846d1000be8fb56020820152602081526120f0565b610f746040805167826d9be4f8a54d986020820152602081526120f0565b610f926040805167a6c5519dc9b604696020820152602081526120f0565b6001600160a01b038416611cdd57610fbe6040805167203d59577844f2ff6020820152602081526120f0565b610fdc60408051679cefc73a238438ab6020820152602081526120f0565b610ffa604080516766cb7d74f4c2ed396020820152602081526120f0565b611018604080516722e93525fb94cd4f6020820152602081526120f0565b610124353403611cc3576001600160a01b03906110496040805167c458e94f7d403ffb6020820152602081526120f0565b61106760408051677a53d51308ae15956020820152602081526120f0565b6110856040805167744a1582ac4cfbac6020820152602081526120f0565b8189169960405190838716825260208201526001600160801b0360c4351660408201526001606082015230908b7fc1aa3920a2b79d3af53873a992b63b5adb2b00c43c4306fe1fbe2c3eb402b27360803393a46110f660408051675674d7ef78df1d7d6020820152602081526120f0565b61111460408051678ffb7cccec8e0e2a6020820152602081526120f0565b61111f83828761238d565b61113d6040805167be01ae54243cfdd36020820152602081526120f0565b61115b60408051677cf82849c4c3dd716020820152602081526120f0565b60405192828616845260208401526001600160801b0360c435166040840152600260608401521690887fc1aa3920a2b79d3af53873a992b63b5adb2b00c43c4306fe1fbe2c3eb402b27360803393a46111c8604080516788449b2ef09290126020820152602081526120f0565b6111e6604080516758b96fef3b64e7ea6020820152602081526120f0565b6001600160a01b038316928315611c9c578161125c9161121a604080516769109afde1cd71fc6020820152602081526120f0565b6112386040805167067dba6d92f2763a6020820152602081526120f0565b6112566040805167e9900661ccf9d4e46020820152602081526120f0565b8461238d565b61127a60408051671999ff50435808246020820152602081526120f0565b611298604080516725b390bddf4cf2e66020820152602081526120f0565b6001600160a01b036040519216825260208201526001600160801b0360c43516604082015260036060820152857fc1aa3920a2b79d3af53873a992b63b5adb2b00c43c4306fe1fbe2c3eb402b27360803393a45b61130a60408051677be5ea8a5312e1696020820152602081526120f0565b6113286040805167ac1bcf2e482509196020820152602081526120f0565b6113306124c5565b61134e6040805167a3789eaaf280bc2d6020820152602081526120f0565b61136c6040805167cbe45e10e1c87bca6020820152602081526120f0565b61138a60408051678dfc101d5de59eae6020820152602081526120f0565b6113a86040805167fcf04e4349a392c36020820152602081526120f0565b6113c6604080516721a1e0f04889be0a6020820152602081526120f0565b6113d16024356128de565b6113ef6040805167c552cd23dcee6d1e6020820152602081526120f0565b61140d60408051674176814f125dab686020820152602081526120f0565b61142b6040805167a913576dda4213106020820152602081526120f0565b8015611c845750611450604080516734631b1102cd347f6020820152602081526120f0565b61146e6040805167c7cc26fea04e1fbe6020820152602081526120f0565b61148c60408051671cec51660b494a496020820152602081526120f0565b6114aa6040805167733b278bfabb15e16020820152602081526120f0565b6114c860408051678207ea4e0fa2e9f06020820152602081526120f0565b6114e66040805167c2065394548ad2b86020820152602081526120f0565b6115046040805167149032c6dd136a746020820152602081526120f0565b60643515611c6f5761152a604080516790975e1b581493206020820152602081526120f0565b611548604080516722e240ac27e59d2c6020820152602081526120f0565b6115666040805167f54f3d8112dafb126020820152602081526120f0565b6115846040805167a39764ea6fa475576020820152602081526120f0565b6115a26040805167e5a689fe8b7645566020820152602081526120f0565b6115c06040805167a0e49659fc9fcfbd6020820152602081526120f0565b156116ec576115e36040805167bd828f61e08a22d56020820152602081526120f0565b6116016040805167e60e94283e0c13f06020820152602081526120f0565b61161f60408051679dfd5803656147e06020820152602081526120f0565b61163d60408051677efb094843b1ab3e6020820152602081526120f0565b61165b6040805167a17d28456d24d01c6020820152602081526120f0565b611679604080516797e01592709a77866020820152602081526120f0565b6116976040805167ac741c7b2d6ff85f6020820152602081526120f0565b6116b560408051672c99cb7000c1f53d6020820152602081526120f0565b6116d36040805167841dd782b35475766020820152602081526120f0565b6388e72aad60e01b5f526084356004525f60245260445ffd5b61170a60408051678c35c71621eb26196020820152602081526120f0565b61172860408051678416f2a13c12bee06020820152602081526120f0565b61174660408051676f117b22fea40ded6020820152602081526120f0565b6117646040805167a3878118e829f69c6020820152602081526120f0565b611782604080516753859a6a84e2f3426020820152602081526120f0565b6117a060408051676eda06570ae6363a6020820152602081526120f0565b6117be6040805167b08965d08641ef506020820152602081526120f0565b6117dc60408051672b872e70f9253f416020820152602081526120f0565b6117fa604080516713f64be243e81c566020820152602081526120f0565b6118186040805167cbffd018574e456e6020820152602081526120f0565b611836604080516761a3ed13e447d6fd6020820152602081526120f0565b61185460408051676931ea30d96412706020820152602081526120f0565b6118726040805167ea45ce8f6f602b3d6020820152602081526120f0565b6001600160801b036103e865ffffffffffff60c43560501c1604166203f4808101809111611c5b574211611c33576118be604080516744dc93f60d58a2576020820152602081526120f0565b6118dc6040805167792ac7dd9b19c1776020820152602081526120f0565b6118fa6040805167e53fd06817c0c5cb6020820152602081526120f0565b6119186040805167b00c000309f1bcfd6020820152602081526120f0565b61193660408051678c7131523d5e09a96020820152602081526120f0565b6119546040805167bf25cbfff4fe9d736020820152602081526120f0565b61197260408051675570e71ea55dab356020820152602081526120f0565b61197d3382846124ec565b611c0e5761199f6040805167ebc6eff1988b4b536020820152602081526120f0565b6119bd60408051672c9e50919183f9196020820152602081526120f0565b6119db6040805167faef6be380e52ef86020820152602081526120f0565b6119f96040805167b329dc59e32884e46020820152602081526120f0565b611a1760408051670245fee6ef288d266020820152602081526120f0565b611a356040805167578a04c2b0d7e8f96020820152602081526120f0565b611a3d6129fe565b91611a5c6040805167b15639e7c7fde1966020820152602081526120f0565b611a7a60408051674c1e0161bd9e48846020820152602081526120f0565b611a9860408051674538e4bf0508e2776020820152602081526120f0565b611ab660408051676b4a3ab17ece2dfa6020820152602081526120f0565b611ad46040805167042a130e5029036e6020820152602081526120f0565b6001600160801b034311611bfb57611b4791611b04604080516743b61fe1357760b46020820152602081526120f0565b611b226040805167e28acee6e7d516506020820152602081526120f0565b611b40604080516701874aec17448d506020820152602081526120f0565b3391612a5e565b5f526020526001600160801b0360c435164360801b1760405f2055611b806040805167a9a5b28b809a186f6020820152602081526120f0565b611b9e60408051670b1a263f9d416c746020820152602081526120f0565b604051906001600160801b0360c4351682527fc36f57f6d44cb265c5423662b91df3a7d3266cde087a3b880c984fa57215d6d760203393a35f7f9b779b17422d0df92223018b32b4d1fa46e071723d6817e2486d003becc55f005d005b63625d93f160e11b5f524360045260245ffd5b67ffffffffffffffff90836309a0e6c360e41b5f52600452166024523360445260645ffd5b624cdd3760e21b5f526001600160801b0360c435166004526203f4806024524260445260645ffd5b634e487b7160e01b5f52601160045260245ffd5b6338f410f960e11b5f5260643560045260245ffd5b63023932eb60e51b5f5260243560045260245260445ffd5b50505050611cbe604080516786fe96396304ae656020820152602081526120f0565b6112ec565b63ce6b173b60e01b5f52610124356004523460245260445ffd5b6001600160a01b0390611d046040805167dedef1b3c5f963f16020820152602081526120f0565b611d226040805167f2ef9b948872b93c6020820152602081526120f0565b611d40604080516715ec5ca1e7534f956020820152602081526120f0565b611d7f6040516323b872dd60e01b602082015233602482015230604482015261012435606482015260648152611d776084826120f0565b838716612b2a565b611049565b9960010199610e14565b6064600291049c019b610e0d565b612710600491049c019b610e03565b6305f5e100600891049c019b610df8565b662386f26fc10000601091049c019b610deb565b6d04ee2d6d415b85acef8100000000602091049c019b610ddb565b5060409a507a184f03e93ff9f4daa797ed6e38ed64bf6a1f0100000000000000008104610dc1565b9291509350611e3660408051676530485c3c9d9f476020820152602081526120f0565b610ac3565b50825115156109df565b346102ee5760203660031901126102ee576004359081151582036102ee576040816747659f72826422fb6020611e80940152602081526120f0565b611e9e60408051678c6f9cf713fe4aa86020820152602081526120f0565b611ebc60408051672db370db2e16307b6020820152602081526120f0565b611eda60408051677057f74dee7234586020820152602081526120f0565b611ee26121c6565b611f006040805167246b85136b07629a6020820152602081526120f0565b611f1e6040805167869415ff2a0a9e726020820152602081526120f0565b611f3c60408051673f9ca05c8b71cc5e6020820152602081526120f0565b611f5a6040805167e2fe377b1fed8c046020820152602081526120f0565b611f7860408051673df4f3595859c9906020820152602081526120f0565b1561203057611f9b604080516713102ee724e2f78d6020820152602081526120f0565b611fb96040805167f6a690e4069554cf6020820152602081526120f0565b611fd7604080516720d5dad5d459b2586020820152602081526120f0565b611fdf6124c5565b600160ff195f516020612ccb5f395f51905f525416175f516020612ccb5f395f51905f52557f62e78cea01bee320cd4e420270b5ea74000d11b0c9f74754ebdbfc544b05a2586020604051338152a1005b61204e604080516754bfcd06dba6eb0e6020820152602081526120f0565b61206c6040805167e05861ccd48a2aeb6020820152602081526120f0565b61208a60408051670b031bba557c017c6020820152602081526120f0565b5f516020612ccb5f395f51905f525460ff8116156120e15760ff19165f516020612ccb5f395f51905f52557f5db9ee0a495bf2e6ff9c91a7834c1ba4fdd244a5e8aa4e537bd38aeae4b073aa6020604051338152a1005b638dfc202b60e01b5f5260045ffd5b90601f8019910116810190811067ffffffffffffffff82111761211257604052565b634e487b7160e01b5f52604160045260245ffd5b67ffffffffffffffff811161211257601f01601f191660200190565b81601f820112156102ee5780359061215982612126565b9261216760405194856120f0565b828452602083830101116102ee57815f926020809301838601378301015290565b81810292918115918404141715611c5b57565b81156121a5570490565b634e487b7160e01b5f52601260045260245ffd5b91908203918211611c5b57565b6121e460408051674dc11759990003dd6020820152602081526120f0565b61220260408051675ec190b7503cc29e6020820152602081526120f0565b6122206040805167b8ccf79c974d1ba36020820152602081526120f0565b7f00000000000000000000000000000000000000000000000000000000000000006001600160a01b0316331461229f5761226e604080516707a682b822f081ca6020820152602081526120f0565b61228c6040805167a0379cf0860aa16e6020820152602081526120f0565b63118cdaa760e01b5f523360045260245ffd5b6122bd604080516740766a13e98d698f6020820152602081526120f0565b565b7f9b779b17422d0df92223018b32b4d1fa46e071723d6817e2486d003becc55f005c61230b5760017f9b779b17422d0df92223018b32b4d1fa46e071723d6817e2486d003becc55f005d565b633ee5aeb560e01b5f5260045ffd5b61238a91612381916123406040805167bc19537e426d20796020820152602081526120f0565b61235e604080516768789ae986654f5d6020820152602081526120f0565b61237c6040805167767216e8fbdd1f916020820152602081526120f0565b612b89565b90929192612bc3565b90565b6001600160a01b03909291926123b7604080516708a82689252d9fc06020820152602081526120f0565b6123d56040805167539af94619bb1c9b6020820152602081526120f0565b6123f36040805167e2c271317f9905246020820152602081526120f0565b168061246657506001600160a01b036122bd9261242460408051673aa93900577565606020820152602081526120f0565b6124426040805167f8b378262b82fb216020820152602081526120f0565b61246060408051670c8978fc062eb0726020820152602081526120f0565b16612643565b916122bd926124896040805167883bf3f24c4b59dd6020820152602081526120f0565b6124a76040805167e0ccaeb4f90537376020820152602081526120f0565b6102e46040805167283249f0f79e73356020820152602081526120f0565b60ff5f516020612ccb5f395f51905f5254166124dd57565b63d93c066560e01b5f5260045ffd5b9061254c92916125106040805167263a5c8a318746cb6020820152602081526120f0565b61252e6040805167c15c040fc293b6ed6020820152602081526120f0565b61069b60408051676bbbd0e1b50c937d6020820152602081526120f0565b151590565b916125fa916125746040805167143a0e0b4f1d54936020820152602081526120f0565b6125926040805167fcd80b44727fc9a76020820152602081526120f0565b6125b060408051675946fbf2896b79346020820152602081526120f0565b6125b86129fe565b936125d7604080516719a76e10bbe130b26020820152602081526120f0565b6125f56040805167b81376a0fe81d0d66020820152602081526120f0565b612a5e565b5f5260205260405f205490565b6122bd926001600160a01b036040519363a9059cbb60e01b602086015216602484015260448301526044825261263e6064836120f0565b612b2a565b8147106126b2575f8080936001600160a01b038294165af13d156126aa573d9061266c82612126565b9161267a60405193846120f0565b82523d5f602084013e5b1561268c5750565b80511561269b57805190602001fd5b63d6bda27560e01b5f5260045ffd5b606090612684565b504763cf47918160e01b5f5260045260245260445ffd5b60016001600160801b03821160071b67ffffffffffffffff83821c1160061b1763ffffffff83821c1160051b1761ffff83821c1160041b1760ff83821c119060031c1701818160011b927f7fffffffffffffffffffffffffffffffffffffffffffffffffffffffffffffff83168303611c5b576002840193848111611c5b5761276a61275486612126565b9561276260405197886120f0565b808752612126565b6020860190601f19013682378551156128065760309053845160011015612806576078602186015360018101809111611c5b575b600181116127c557506127b057505090565b63e22e27eb60e01b5f5260045260245260445ffd5b90600f81166010811015612806576f181899199a1a9b1b9c1cb0b131b232b360811b901a6127f38387612c37565b5360041c908015611c5b575f190161279e565b634e487b7160e01b5f52603260045260245ffd5b6001600160a01b03168061282e602a612126565b9161283c60405193846120f0565b602a835261284a602a612126565b6020840190601f19013682378351156128065760309053825160011015612806576078602184015360295b6001811161289d5750612886575090565b63e22e27eb60e01b5f52600452601460245260445ffd5b90600f81166010811015612806576f181899199a1a9b1b9c1cb0b131b232b360811b901a6128cb8386612c37565b5360041c908015611c5b575f1901612875565b7f3963d7b9cf9ab64bedba93f8dd0cd44cded2141708f516bf21c5983903a02d379061291e604080516794776d1554f443d86020820152602081526120f0565b61293c60408051677e5b88e843133e8d6020820152602081526120f0565b61295a6040805167a9c78cb79c33be1c6020820152602081526120f0565b036129a05761297d6040805167f626970daadabd546020820152602081526120f0565b61299b6040805167a0d17847ca366e906020820152602081526120f0565b600190565b6129be60408051674cd7042508c5b2b56020820152602081526120f0565b6129dc604080516776c518079bef1cfb6020820152602081526120f0565b6129fa60408051677942700738d9dfe76020820152602081526120f0565b5f90565b612a1c60408051671bf9b7a7959a53996020820152602081526120f0565b612a3a604080516797c0b7ff94387a356020820152602081526120f0565b7f14a2a38cbb6097822a13b226a7854e395f5ebfb2a03e0ff5bc7942030b039b0090565b916001600160a01b0390612a8660408051671475274ff7e3d6b16020820152602081526120f0565b612aa460408051676175dc9ccad865a26020820152602081526120f0565b612ac260408051677d3b6e093af361ad6020820152602081526120f0565b67ffffffffffffffff6040519383602086019646885216604086015216606084015216608082015260808152612af960a0826120f0565b51902090565b60ff5f516020612ceb5f395f51905f525460401c1615612b1b57565b631afcd79f60e31b5f5260045ffd5b905f602091828151910182855af115612b7e575f513d612b7557506001600160a01b0381163b155b612b595750565b6001600160a01b0390635274afe760e01b5f521660045260245ffd5b60011415612b52565b6040513d5f823e3d90fd5b8151919060418303612bb957612bb29250602082015190606060408401519301515f1a90612c48565b9192909190565b50505f9160029190565b6004811015612c235780612bd5575050565b60018103612bec5763f645eedf60e01b5f5260045ffd5b60028103612c07575063fce698f760e01b5f5260045260245ffd5b600314612c115750565b6335e2f38360e21b5f5260045260245ffd5b634e487b7160e01b5f52602160045260245ffd5b908151811015612806570160200190565b91907f7fffffffffffffffffffffffffffffff5d576e7357a4501ddfe92f46681b20a08411612cbf579160209360809260ff5f9560405194855216868401526040830152606082015282805260015afa15612b7e575f516001600160a01b03811615612cb557905f905f90565b505f906001905f90565b5050505f916003919056fecd5ed15c6e187e77e9aee88184c21f4f2182ab5827cb3b7e07fbedcd63f03300f0c57e16840df040f15088dc2f81fe391c3923bec73e23a9662efc9c229c6a00a264697066735822122001fa06a1301e96df753c9457b641cf9e2b00bcba5c44839f9f9d1376b2153ad364736f6c634300081c0033",
  "linkReferences": {},
  "deployedLinkReferences": {}
}