{
  "_format": "hh-sol-artifact-1",
  "contractName": "DevOracle",
  "sourceName": "contracts/privatenet/DevOracle.sol",
  "abi": [
    {
      "inputs": [
        {
          "internalType": "uint8",
          "name": "decimals_",
          "type": "uint8"
        },
        {
          "internalType": "string",
          "name": "description_",
          "type": "string"
        },
        {
          "internalType": "uint16",
          "name": "phaseId_",
          "type": "uint16"
        },
        {
          "internalType": "uint256",
          "name": "version_",
          "type": "uint256"
        },
        {
          "internalType": "int256",
          "name": "answer_",
          "type": "int256"
        },
        {
          "internalType": "uint256",
          "name": "updatedAt_",
          "type": "uint256"
        }
      ],
      "stateMutability": "nonpayable",
      "type": "constructor"
    },
    {
      "inputs": [
        {
          "internalType": "uint8",
          "name": "bits",
          "type": "uint8"
        },
        {
          "internalType": "uint256",
          "name": "value",
          "type": "uint256"
        }
      ],
      "name": "SafeCastOverflowedUintDowncast",
      "type": "error"
    },
    {
      "anonymous": false,
      "inputs": [
        {
          "indexed": true,
          "internalType": "int256",
          "name": "current",
          "type": "int256"
        },
        {
          "indexed": true,
          "internalType": "uint256",
          "name": "roundId",
          "type": "uint256"
        },
        {
          "indexed": false,
          "internalType": "uint256",
          "name": "updatedAt",
          "type": "uint256"
        }
      ],
      "name": "AnswerUpdated",
      "type": "event"
    },
    {
      "anonymous": false,
      "inputs": [
        {
          "indexed": true,
          "internalType": "uint256",
          "name": "roundId",
          "type": "uint256"
        },
        {
          "indexed": true,
          "internalType": "address",
          "name": "startedBy",
          "type": "address"
        },
        {
          "indexed": false,
          "internalType": "uint256",
          "name": "startedAt",
          "type": "uint256"
        }
      ],
      "name": "NewRound",
      "type": "event"
    },
    {
      "inputs": [],
      "name": "decimals",
      "outputs": [
        {
          "internalType": "uint8",
          "name": "",
          "type": "uint8"
        }
      ],
      "stateMutability": "view",
      "type": "function"
    },
    {
      "inputs": [],
      "name": "description",
      "outputs": [
        {
          "internalType": "string",
          "name": "",
          "type": "string"
        }
      ],
      "stateMutability": "view",
      "type": "function"
    },
    {
      "inputs": [
        {
          "internalType": "uint256",
          "name": "roundId",
          "type": "uint256"
        }
      ],
      "name": "getAnswer",
      "outputs": [
        {
          "internalType": "int256",
          "name": "",
          "type": "int256"
        }
      ],
      "stateMutability": "view",
      "type": "function"
    },
    {
      "inputs": [
        {
          "internalType": "uint80",
          "name": "_roundId",
          "type": "uint80"
        }
      ],
      "name": "getRoundData",
      "outputs": [
        {
          "internalType": "uint80",
          "name": "roundId",
          "type": "uint80"
        },
        {
          "internalType": "int256",
          "name": "answer",
          "type": "int256"
        },
        {
          "internalType": "uint256",
          "name": "startedAt",
          "type": "uint256"
        },
        {
          "internalType": "uint256",
          "name": "updatedAt",
          "type": "uint256"
        },
        {
          "internalType": "uint80",
          "name": "answeredInRound",
          "type": "uint80"
        }
      ],
      "stateMutability": "view",
      "type": "function"
    },
    {
      "inputs": [
        {
          "internalType": "uint256",
          "name": "roundId",
          "type": "uint256"
        }
      ],
      "name": "getTimestamp",
      "outputs": [
        {
          "internalType": "uint256",
          "name": "",
          "type": "uint256"
        }
      ],
      "stateMutability": "view",
      "type": "function"
    },
    {
      "inputs": [],
      "name": "latestAnswer",
      "outputs": [
        {
          "internalType": "int256",
          "name": "",
          "type": "int256"
        }
      ],
      "stateMutability": "view",
      "type": "function"
    },
    {
      "inputs": [],
      "name": "latestRound",
      "outputs": [
        {
          "internalType": "uint256",
          "name": "",
          "type": "uint256"
        }
      ],
      "stateMutability": "view",
      "type": "function"
    },
    {
      "inputs": [],
      "name": "latestRoundData",
      "outputs": [
        {
          "internalType": "uint80",
          "name": "roundId",
          "type": "uint80"
        },
        {
          "internalType": "int256",
          "name": "answer",
          "type": "int256"
        },
        {
          "internalType": "uint256",
          "name": "startedAt",
          "type": "uint256"
        },
        {
          "internalType": "uint256",
          "name": "updatedAt",
          "type": "uint256"
        },
        {
          "internalType": "uint80",
          "name": "answeredInRound",
          "type": "uint80"
        }
      ],
      "stateMutability": "view",
      "type": "function"
    },
    {
      "inputs": [],
      "name": "latestTimestamp",
      "outputs": [
        {
          "internalType": "uint256",
          "name": "",
          "type": "uint256"
        }
      ],
      "stateMutability": "view",
      "type": "function"
    },
    {
      "inputs": [],
      "name": "phaseId",
      "outputs": [
        {
          "internalType": "uint16",
          "name": "",
          "type": "uint16"
        }
      ],
      "stateMutability": "view",
      "type": "function"
    },
    {
      "inputs": [
        {
          "internalType": "int256",
          "name": "answer",
          "type": "int256"
        },
        {
          "internalType": "uint256",
          "name": "updatedAt",
          "type": "uint256"
        }
      ],
      "name": "setAnswer",
      "outputs": [],
      "stateMutability": "nonpayable",
      "type": "function"
    },
    {
      "inputs": [],
      "name": "version",
      "outputs": [
        {
          "internalType": "uint256",
          "name": "",
          "type": "uint256"
        }
      ],
      "stateMutability": "view",
      "type": "function"
    }
  ],
  "bytecode": "0x608080604052346106275761136d803803809161001c828561062b565b833981019060c0818303126106275780519160ff83168093036106275760208201516001600160401b03811161062757820181601f82011215610627578051906001600160401b0382116104625760405192610082601f8401601f19166020018561062b565b8284526020838301011161062757815f9260208093018386015e83010152604082015161ffff81168091036106275760608301519160a06080850151940151946100e0604080516723537dd659c2eb1360208201526020815261062b565b6100fe60408051679fafc516053aa9e960208201526020815261062b565b60ff195f5416175f556101256040805167319356b9878674d160208201526020815261062b565b8051906001600160401b03821161046257819061014360015461064e565b601f81116105cc575b50602090601f8311600114610566575f9261055b575b50508160011b915f199060031b1c1916176001555b6101956040805167232fddd9b93edf8060208201526020815261062b565b61ffff196002541617806002556101c0604080516778f9c96f8805dfef60208201526020815261062b565b816003556101e260408051677bf35b65abf3166160208201526020815261062b565b6102006040805167dcf908b8fc55436360208201526020815261062b565b61021e60408051673d23cabb9cc3a03760208201526020815261062b565b61023c6040805167470ba814a963acda60208201526020815261062b565b600454916001600160501b03831680158015610533575b8061050a575b156104e157505f549060405190602082019260ff60f81b9060f81b1683525f906001546102858161064e565b90600181169081156104bd5750600114610476575b50916102c96040828461ffff9669ffff000000000000000098965246602082015203602081018452018261062b565b519020169160401b16175b60018060501b0316809160018060501b0319161760045561030960408051673cf5bb0666848ff460208201526020815261062b565b60405160808101906001600160401b038211818310176104625760039160405283815260208101858152604082019086825260608301948086525f52600560205260405f2092518355516001830155516002820155019060018060501b0390511660018060501b03198254161790556103966040805167c4eaf35302cf0c8760208201526020815261062b565b6103b46040805167a80ff1c364c085a660208201526020815261062b565b60018060501b036004541680917f0559884fd3a460db3073b7fc896cc77986f16e378210ded43186175bf646fc5f6020604051868152a36104096040805167cbfca80f102d9fee60208201526020815261062b565b61042760408051678be311a62c4220b160208201526020815261062b565b6040519182527f0109fc6f55cf40689f02fbaad7af7fe7bbac8a3d2186600afc7d3e10cac6027160203393a3604051610cc690816106878239f35b634e487b7160e01b5f52604160045260245ffd5b60015f908152919250905f51602061134d5f395f51905f525b8282106104a65750508201602101906102c961029a565b60018160209254602185890101520191019061048f565b60ff1916602180870191909152821515909202850190910192506102c9905061029a565b6001019150506001600160501b038111156102d457634e487b7160e01b5f52601160045260245ffd5b5061052c604080516774857fb3c6d5438b60c11b60208201526020815261062b565b6001610259565b50610555604080516721322012bd218d6960c21b60208201526020815261062b565b5f610253565b015190505f80610162565b60015f9081528281209350601f198516905b8181106105b4575090846001959493921061059c575b505050811b01600155610177565b01515f1960f88460031b161c191690555f808061058e565b92936020600181928786015181550195019301610578565b60015f529091505f51602061134d5f395f51905f52601f840160051c8101916020851061061d575b90601f859493920160051c01905b81811061060f575061014c565b5f8155849350600101610602565b90915081906105f4565b5f80fd5b601f909101601f19168101906001600160401b0382119082101761046257604052565b90600182811c9216801561067c575b602083101461066857565b634e487b7160e01b5f52602260045260245ffd5b91607f169161065d56fe6080806040526004361015610012575f80fd5b5f3560e01c908163313ce56714610b5d5750806350d25bcd14610ad157806354fd4d5014610a5a57806358303b10146109df578063668a0f021461095f5780637284e416146108155780638205bf6a14610786578063860f1383146104225780639a6fc8f514610317578063b5ab58dc14610282578063b633620c146101ea5763feaf968c146100a0575f80fd5b346101e6575f3660031901126101e6576100ce60408051672bd7b2d6af6c5829602082015260208152610c05565b6100ec6040805167593f17db92369151602082015260208152610c05565b61010a60408051676bb9c77dfb612d98602082015260208152610c05565b6001600160501b0360045416805f52600560205260405f20906101e26040519261013384610bd5565b80548452600181015493602081019485526001600160501b0380600360028501549460408501958652015416916060810192835261018560408051677e6c7ec112fd2d7d602082015260208152610c05565b6101a360408051676b61b67631f4fd96602082015260208152610c05565b51955192519151169160405195869586936080936001600160501b0393979692978460a088019916875260208701526040860152606085015216910152565b0390f35b5f80fd5b346101e65760203660031901126101e65761021960408051679fdf05d2dce590b7602082015260208152610c05565b6102376040805167997a821422e3eba3602082015260208152610c05565b6102556040805167d930bb6214a1973e602082015260208152610c05565b6001600160501b03610268600435610c5f565b165f5260056020526020600260405f200154604051908152f35b346101e65760203660031901126101e6576102b1604080516797e8f1b5ce871c26602082015260208152610c05565b6102cf60408051675ff18560b76eb1fd602082015260208152610c05565b6102ed604080516728fcfc08e6e34d46602082015260208152610c05565b6001600160501b03610300600435610c5f565b165f526005602052602060405f2054604051908152f35b346101e65760203660031901126101e6576004356001600160501b0381168082036101e65761035a604080516773f6e85b4b3dc8b1602082015260208152610c05565b6103786040805167ce7b724d5970cee0602082015260208152610c05565b61039660408051673d0dc9a1623d8b7c602082015260208152610c05565b5f52600560205260405f20906101e2604051926103b284610bd5565b80548452600181015493602081019485526001600160501b0380600360028501549460408501958652015416916060810192835261040460408051673ca5f5dae2462696602082015260208152610c05565b6101a360408051672d5be2f4998544c8602082015260208152610c05565b346101e65760403660031901126101e6576004356024359061045860408051673d23cabb9cc3a037602082015260208152610c05565b6104766040805167470ba814a963acda602082015260208152610c05565b6004546001600160501b0381168015801561075e575b80610735575b15610702575069ffff000000000000000060025460401b165f5460035460405190602082019260ff60f81b9060f81b1683525f906001546104d281610c27565b90600181169081156106de5750600114610685575b50916105146040828461ffff966001600160501b0399989652466020820152036020810184520182610c05565b51902016175b1680916001600160501b0319161760045561054960408051673cf5bb0666848ff4602082015260208152610c05565b6001600160501b03600360405161055f81610bd5565b84815260208101868152604082019087825260608301958087525f52600560205260405f2092518355516001830155516002820155019151166001600160501b03198254161790556105c56040805167c4eaf35302cf0c87602082015260208152610c05565b6105e36040805167a80ff1c364c085a6602082015260208152610c05565b6001600160501b036004541680917f0559884fd3a460db3073b7fc896cc77986f16e378210ded43186175bf646fc5f6020604051868152a36106396040805167cbfca80f102d9fee602082015260208152610c05565b61065760408051678be311a62c4220b1602082015260208152610c05565b6040519182527f0109fc6f55cf40689f02fbaad7af7fe7bbac8a3d2186600afc7d3e10cac6027160203393a3005b90915060015f527fb10e2d527612073b26eecdfd717e6a320cf44b4afac2b0732d9fcbe2b7fa0cf65f905b8282106106c75750508201602101906105146104e7565b6001816020925460218589010152019101906106b0565b60ff19166021808701919091528215159092028501909101925061051490506104e7565b6001016001600160501b038111610721576001600160501b039061051a565b634e487b7160e01b5f52601160045260245ffd5b50610757604080516774857fb3c6d5438b60c11b602082015260208152610c05565b6001610492565b50610780604080516721322012bd218d6960c21b602082015260208152610c05565b5f61048c565b346101e6575f3660031901126101e6576107b46040805167932aabeed7f54864602082015260208152610c05565b6107d260408051677cd52718183ae508602082015260208152610c05565b6107f060408051679710c4128a1b4549602082015260208152610c05565b6001600160501b03600454165f5260056020526020600260405f200154604051908152f35b346101e6575f3660031901126101e6576108436040805167703cb76301fbcbb5602082015260208152610c05565b6108616040805167e96e4b57cdadf580602082015260208152610c05565b61087e604080516625d22ae912e2dd602082015260208152610c05565b604051600154905f61088f83610c27565b80835260208301936001811690811561094457506001146108e6575b50906108bb816040930382610c05565b8151928391602083525180918160208501528484015e5f828201840152601f01601f19168101030190f35b91905060015f527fb10e2d527612073b26eecdfd717e6a320cf44b4afac2b0732d9fcbe2b7fa0cf6915f905b80821061092a575090915081016020016108bb6108ab565b919260018160209254838588010152019101909291610912565b60ff1916855250151560051b820160200190506108bb6108ab565b346101e6575f3660031901126101e65761098d6040805167459eb40e580bb2c9602082015260208152610c05565b6109ab6040805167a0eefa9e97524cd1602082015260208152610c05565b6109c96040805167069a79accbd4dba8602082015260208152610c05565b60206001600160501b0360045416604051908152f35b346101e6575f3660031901126101e657610a0d6040805167a7ed2fe88453cc95602082015260208152610c05565b610a2b60408051673ca4a31216ab63d7602082015260208152610c05565b610a496040805167a3c272cc5980a736602082015260208152610c05565b602061ffff60025416604051908152f35b346101e6575f3660031901126101e657610a88604080516752828374e2dc371f602082015260208152610c05565b610aa66040805167731092e65f684eb2602082015260208152610c05565b610ac460408051678de743340c455604602082015260208152610c05565b6020600354604051908152f35b346101e6575f3660031901126101e657610aff6040805167d1c37a5e4689490d602082015260208152610c05565b610b1d60408051670cfd66a5c82a0e9c602082015260208152610c05565b610b3b604080516765ed464527a6c30c602082015260208152610c05565b6001600160501b03600454165f526005602052602060405f2054604051908152f35b346101e6575f3660031901126101e65760408167e634bddddec270bb6020610b8a94015260208152610c05565b610ba86040805167372b80b41399e675602082015260208152610c05565b610bc660408051678020b95448ac3cbc602082015260208152610c05565b602060ff5f5416604051908152f35b6080810190811067ffffffffffffffff821117610bf157604052565b634e487b7160e01b5f52604160045260245ffd5b90601f8019910116810190811067ffffffffffffffff821117610bf157604052565b90600182811c92168015610c55575b6020831014610c4157565b634e487b7160e01b5f52602260045260245ffd5b91607f1691610c36565b6001600160501b038111610c79576001600160501b031690565b6306dfcc6560e41b5f52605060045260245260445ffdfea2646970667358221220eef6d4de677b98692fe79745c78a437b577048ba70fc53e6d503c8b306ec730864736f6c634300081c0033b10e2d527612073b26eecdfd717e6a320cf44b4afac2b0732d9fcbe2b7fa0cf6",
  "linkReferences": {},
  "deployedLinkReferences": {}
}